:100000000C94AF000C94CC000C94CC000C94CC005D
:100010000C94CC000C94CC000C94CC000C94CC0030
:100020000C94CC000C94CC000C94CC000C94CC0020
:100030000C94CC000C94CC000C94CC000C94CC0010
:100040000C94CC000C94CC000C94CC000C94CC0000
:100050000C94CC006E616E004E414E00696E6600DD
:10006000494E460000407A10F35A00A0724E18091B
:100070000010A5D4E80000E87648170000E40B540F
:10008000020000CA9A3B000000E1F50500008096DE
:100090009800000040420F000000A0860100000010
:1000A000102700000000E8030000000064000000CA
:1000B00000000A00000000000100000000002C7693
:1000C000D888DC674F0823DFC1DFAE59E1B1B796AE
:1000D000E5E3E453C63AE651997696E8E6C284260B
:1000E000EB898C9B62ED407C6FFCEFBC9C9F40F2E7
:1000F000BAA56FA5F490055A2AF75C936B6CF96763
:100100006DC11BFCE0E40D47FEF520E6B500D0ED27
:10011000902E0300943577050080841E080000208F
:100120004E0A000000C80C333333330F986E12832D
:100130001141EF8D2114893BE65516CFFEE6DB1801
:10014000D1844B381BF77C1D901DA4BBE4242032C6
:1001500084725E228100C9F124ECA1E53D271124BF
:100160001FBECFE5D8E0DEBFCDBF11E0A0E6B0E016
:10017000EEEAF9E102C005900D92AC33B107D9F770
:1001800021E0ACE3B1E001C01D92A839B207E1F76C
:100190000E941C010C94D50C0C940000A09AA19A0A
:1001A000A29AA39AA498A598A698A798A89AA99A5B
:1001B000AA9AAB9AAC9AAD9AAE9AAF9A089580E09B
:1001C000A89AA99AAA9AAB9A813041F028F0823075
:1001D00039F0833041F406C0A89805C0A99803C03F
:1001E000AA9801C0AB989C9B15C09D9B15C09E9B77
:1001F00015C09F9B15C009C09C9BFECF9D9BFCCF4B
:100200009E9BFACF9F9BF8CF0DC08F5F8430C1F6C5
:100210008FEF0895E0E0F0CFE1E0EECFE2E0ECCF49
:10022000E3E0EACFF0E094E0899FE00DF11D1124B6
:10023000E451FF4F80810895CF93DF93CDB7DEB7B0
:1002400061970FB6F894DEBF0FBECDBF0F2EF1E160
:10025000BF2EF02DEE24E394F12CEC0EFD1EDD24D8
:10026000D3940FE411E00F2EFDE39F2EF02D689440
:10027000AA24A2F86894882481F80F2EF3E0CF2EE8
:10028000F02D80913C01823009F481C028F488234C
:1002900049F08130B1F70DC0833009F48BC0843050
:1002A00081F7BDC00E946E020E94CE00D0923C0138
:1002B000E8CF10923D01EEE3F1E01192E017F10773
:1002C000E1F7612C712C0E94DF008F3FE1F3833452
:1002D00079F40E94910280E0E82FF0E0E25CFE4FAA
:1002E00010828F5F7816C0F710923D01712CEBCF12
:1002F0008D3319F5611005C0C0923D01C0923C01DB
:10030000C0CFE72DF0E0E25CFE4F90823197808114
:100310008B3231F08D3221F08A3211F08F3219F4A4
:10032000D0923D0107C080913D01811103C08092B0
:100330003C01A7CFA0923C01A4CF9FE0971518F2F3
:100340008B3251F08D3241F08A3209F479C08F320C
:1003500099F47AC0D0923D01E72DF0E0E35CFE4FC6
:1003600090819B3231F09D3221F09A3211F09F3210
:1003700011F4D0923D016394E72DF0E0E25CFE4F72
:100380008083472D60E00E94D20273949CCF8091BD
:100390003D01833019F4C0923C0173CF8EE391E0AC
:1003A0000E94EC02811103C0C0923C016ACFA0926E
:1003B0003C0167CFF7018B2D11928A95E9F7809167
:1003C0003D01833059F460E08D2D0E949F028EE341
:1003D00091E00E94BA0210923D011AC060E0C7018C
:1003E0000E94E006811108C060E08D2D0E949F02EE
:1003F000C7010E94BA020CC0823051F460E08D2D1A
:100400000E949F028CE191E00E94BA0210923D018D
:100410000E94DF008334E1F7D0923C0132CF60E0EC
:100420008D2D0E949F028CE091E00E94BA020E94F2
:10043000DF008334E1F7D0923C0110923D0121CFDF
:10044000772009F487CF88CF772009F483CF84CF32
:10045000D89A85E38A95F1F70000D89885E38A95C4
:10046000F1F700000895CF93C62F811102C0D998EB
:1004700001C0D99AC4FF02C0DC9A01C0DC98C5FF54
:1004800002C0DD9A01C0DD98C6FF02C0DE9A01C03D
:10049000DE98CC2314F4DF9A01C0DF980E94280272
:1004A0008FE99FE00197F1F700C00000C0FF02C094
:1004B000DC9A01C0DC98C1FF02C0DD9A01C0DD9862
:1004C000C2FF02C0DE9A01C0DE98C3FF02C0DF9AFD
:1004D00001C0DF980E942802CF910895D09AD19A46
:1004E000D49AD59AD69AD79AD898D998DC98DD9884
:1004F000DE98DF988FE39CE90197F1F700C00000D8
:1005000063E380E00E94330262E380E00E943302F2
:1005100068E280E00E9433026CE080E00E943302D7
:10052000089561E080E00E9433022FEF80E792E0BF
:10053000215080409040E1F700C0000008958823DA
:1005400019F0813089F408C0603180F4605880E08F
:100550000E94330280E00895603150F4605480E0DE
:100560000E94330280E0089582E0089583E00895B8
:1005700083E00895CF93DF93009771F0FC016081D1
:10058000662361F0EC01219681E00E9433026991BB
:100590006111FACF80E003C081E001C080E0DF910B
:1005A000CF910895CF93C82F623098F4403108F06E
:1005B0004F70611103C0642F605802C0642F6054F3
:1005C00080E00E9433026C2F81E00E94330280E0C1
:1005D00001C082E0CF9108952F924F925F926F9267
:1005E0007F928F929F92AF92BF92CF92DF92EF92C3
:1005F000FF920F931F93CF93DF93CDB7DEB7C8550C
:10060000D1090FB6F894DEBF0FBECDBF40E050E079
:1006100060E87FE367964CAF5DAF6EAF7FAF6797E3
:1006200063961CAE1DAE1EAE1FAE6397DC011C911F
:10063000112309F411C11D3309F072C04EC069962F
:10064000EEADFFAD699711916996FFAFEEAF699777
:10065000112309F401C11D3309F075C03EC086EABB
:1006600090E00E947C0767968CAC9DACAEACBFACB2
:1006700067976396CCACDDACEEACFFAC639720E043
:1006800030E040E452E40E94BB07A50194010E94BF
:100690004209A70196010E94BC07462F572F682FD9
:1006A000792F63964CAF5DAF6EAF7FAF6397679660
:1006B0006CAD7DAD8EAD9FAD679720E030E040E240
:1006C00051E40E944209462F572F682F792F6796D1
:1006D0004CAF5DAF6EAF7FAF679786EA90E00E9448
:1006E0005C07882309F4BBCF63964CAD5DAD6EAD5E
:1006F0007FAD639780E690E00E946307612F70E012
:10070000719561957109882777FD8095982F0E94D2
:100710008E08AB01BC0180E690E00E9463079CC09C
:100720009C012F5F3F4F69963FAF2EAF69970F2E09
:10073000F1E12F2EF02D0F2E412C512CF0E86F2ED1
:10074000FFE37F2EF02D1B3209F448C01D3209F45F
:1007500045C01A3209F442C01F3209F06EC03EC0D3
:1007600086EA90E00E947C0767968CAC9DACAEACAC
:10077000BFAC67976396CCACDDACEEACFFAC6397D7
:1007800020E030E040E452E40E94BB07A501940160
:100790000E944209A70196010E94BC07462F572FCD
:1007A000682F792F63964CAF5DAF6EAF7FAF6397C5
:1007B00067966CAD7DAD8EAD9FAD679720E030E064
:1007C00040E251E40E944209462F572F682F792FAB
:1007D00067964CAF5DAF6EAF7FAF679786EA90E0EC
:1007E0000E945C07882309F4BBCF63964CAD5DADD6
:1007F0006EAD7FAD639780E690E00E946307612F46
:1008000070E0719561957109882777FD8095982F23
:100810000E948E08AB01BC0180E690E00E94630755
:1008200063961CAE1DAE1EAE1FAE639767964CAEB0
:100830005DAE6EAE7FAE67970CC0612F70E080E05A
:1008400090E00E948C08AB01BC0186EA90E00E9417
:1008500063072A9409F0F3CE2B961CAE1DAE1EAE94
:100860001FAE2B97FE01319686E4DF011D928A951B
:10087000E9F78FEF89838091620090916300A091E6
:100880006400B09165002F968CAF9DAFAEAFBFAF47
:100890002F972F966CAD7DAD8EAD9FAD2F9720E03D
:1008A00030E044E752EC0E94200881114FC032C072
:1008B000F70181919191A191B1917F012F968CAF18
:1008C0009DAFAEAFBFAF2F972F966CAD7DAD8EAD08
:1008D0009FAD2F9720E030E044E752EC0E942008C3
:1008E000811140C017C00091970110E0CE01019620
:1008F0000E947C07F801EE0FFF1FEE0FFF1FED5A5D
:10090000FE4F6083718382839383809197018F5F11
:1009100080939701CE0101960E945C07882319F30A
:100920002F968CAD9DADAEADBFAD2F97E0919701E9
:10093000F0E0EE0FFF1FEE0FFF1FED5AFE4F80831A
:100940009183A283B3831092970160C10F2EF6E6C4
:10095000EF2EF0E0FF2EF02D0F2EF6EACF2EF0E076
:10096000DF2EF02D2F966CAD7DAD8EAD9FAD2F9708
:1009700020E030E04CE252EC0E942008882371F025
:100980002F966CAD7DAD8EAD9FAD2F9720E030E002
:1009900044E352EC0E942008811188C0CE010196E8
:1009A0000E945C07811177C0CE0101960E94A707C3
:1009B0002B966CAF7DAF8EAF9FAF2B972B966CAD08
:1009C0007DAD8EAD9FAD2B9720E030E048E252EC3C
:1009D0000E942008882331F12B966CAD7DAD8EAD41
:1009E0009FAD2B9720E030E04CE352EC0E942008B2
:1009F0008823C1F03FC00091970110E0CE0101961D
:100A00000E947C07F801EE0FFF1FEE0FFF1FED5A4B
:100A1000FE4F6083718382839383809197018F5F00
:100A200080939701CE0101960E945C07882319F3F9
:100A30002F964CAD5DAD6EAD7FAD2F97CE0101967B
:100A40000E946307DFC00091970110E0CE0101967C
:100A50000E947C07F801EE0FFF1FEE0FFF1FED5AFB
:100A6000FE4F6083718382839383809197018F5FB0
:100A700080939701CE0101960E945C07882319F3A9
:100A80002F964CAD5DAD6EAD7FAD2F97CE0101962B
:100A90000E946307B7C02F964CAD5DAD6EAD7FADC4
:100AA0002F97CE0101960E946307ACC02F966CADC4
:100AB0007DAD8EAD9FAD2F9720E030E048E252EC47
:100AC0000E942008882371F02F966CAD7DAD8EAD0D
:100AD0009FAD2F9720E030E04CE352EC0E942008BD
:100AE000811179C0CE0101960E945C07811168C016
:100AF0002B966CAD7DAD8EAD9FAD2B9720E030E099
:100B000048E252EC0E942008882331F12B966CAD0C
:100B10007DAD8EAD9FAD2B9720E030E04CE352ECE5
:100B20000E9420088823C1F040C00091970110E086
:100B3000CE0101960E947C07F801EE0FFF1FEE0F19
:100B4000FF1FED5AFE4F60837183828393838091F0
:100B500097018F5F80939701CE0101960E945C07F9
:100B6000811118C0CE0101960E94A70720E030E055
:100B700048E252EC0E9420088823B9F2CE01019687
:100B80000E94A70720E030E04CE352EC0E942008CE
:100B9000882359F22F964CAD5DAD6EAD7FAD2F978A
:100BA000CE0101960E9463072DC02F964CAD5DAD1E
:100BB0006EAD7FAD2F97CE0101960E94630722C0D4
:100BC0002F964CAD5DAD6EAD7FAD2F97CE010196EA
:100BD0000E94630717C0209197012F968CAD9DADA1
:100BE000AEADBFAD2F97E22FF0E0EE0FFF1FEE0F7F
:100BF000FF1FED5AFE4F80839183A283B3832F5F43
:100C000020939701EC14FD0409F052CEFE013196B9
:100C100086E4DF011D928A95E9F78FEF8983809042
:100C2000530190905401A0905501B090560120E0DE
:100C300030E044E752ECC501B4010E94200888234B
:100C400009F498C007E511E00F2EF7E9EF2EF1E067
:100C5000FF2EF02D11C0F80181909190A190B190DC
:100C60008F0120E030E044E752ECC501B4010E945E
:100C70002008882309F47EC020E030E04CE252ECEA
:100C8000C501B4010E942008882309F462C020E055
:100C900030E044E352ECC501B4010E9420088823EF
:100CA00049F120E030E048E252ECC501B4010E9475
:100CB0002008882371F120E030E04CE352ECC501BC
:100CC000B4010E9420088823A9F109C0462F572F9C
:100CD000682F792FCE0101960E94630706C0B501E7
:100CE000A401CE0101960E9463070E151F0509F0AD
:100CF000B2CF40C0CE0101960E947C074B015C013F
:100D0000CE0101960E947C07A50194010E94BB07B9
:100D1000DDCFCE0101960E947C074B015C01CE0124
:100D200001960E947C079B01AC01C501B4010E94A1
:100D30004209CCCFCE0101960E947C074B015C0199
:100D4000CE0101960E947C07A50194010E9424080F
:100D5000BDCFCE0101960E947C074B015C01CE0104
:100D600001960E947C079B01AC01C501B4010E9461
:100D7000BC07ACCFCE0101960E94A70760934F013C
:100D800070935001809351019093520180E0C85AB2
:100D9000DF4F0FB6F894DEBF0FBECDBFDF91CF910E
:100DA0001F910F91FF90EF90DF90CF90BF90AF9089
:100DB0009F908F907F906F905F904F902F900895AD
:100DC000CF92DF92EF92FF920F931F93CF93DF9317
:100DD000EC0161112CC0C0904F01D0905001E09007
:100DE0005101F090520120E836E948E15BE4C70187
:100DF000B6010E943E09181654F020E836E948E191
:100E00005BECC701B6010E942008882344F405E08A
:100E100025E0AE01C701B6010E94A50928C08E01D8
:100E200023E041E0C701B6010E94210A20C06130E1
:100E3000F1F460914F0170915001809151019091B6
:100E4000520105E025E0AE010E94A50910C01192F3
:100E500011921192119219921992199219921D924E
:100E60001D921D921D92E817F90789F709C0E8EA5B
:100E7000F0E0C2E6D0E0A3E5B1E08CEE90E0E7CF91
:100E80001092A700109261001092A60010926000CC
:100E90001092970110924F0110925001109251013F
:100EA0001092520180E0DF91CF911F910F91FF903E
:100EB000EF90DF90CF90089521E0FC0181818111B6
:100EC00020E0822F0895FC019081892F8F5F80831D
:100ED000813111F490830895DF0194E0899FA00D82
:100EE000B11D112412964D935D936D937C931597CC
:100EF00081818F5F81830895CF93DF93FC0181818E
:100F00008823D9F02081EF0194E0299FC00DD11DE5
:100F10001124DE011296CA8111967C9111971296C6
:100F20006C91129713969C91215020832F3F19F0BA
:100F30008150818306C0118204C0C0E070E060E08F
:100F400090E0362F6C2F832FDF91CF910895FC0115
:100F50002081DC01F4E02F9FA00DB11D1124FD01C3
:100F6000329612965C91418132812381652F742FD4
:100F7000832F922F08955058BB27AA270ED044C123
:100F800035D130F03AD120F031F49F3F11F41EF406
:100F90002AC10EF4E095E7FB20C1E92F46D180F38A
:100FA000BA17620773078407950718F071F49EF566
:100FB0005EC10EF4E0950B2EBA2FA02D0B01B901E6
:100FC00090010C01CA01A0011124FF27591B99F0BF
:100FD000593F50F4503E68F11A16F040A22F232FCB
:100FE000342F4427585FF3CF469537952795A7951B
:100FF000F0405395C9F77EF41F16BA0B620B730BC2
:10100000840BBAF09150A1F0FF0FBB1F661F771F32
:10101000881FC2F70EC0BA0F621F731F841F48F4E7
:10102000879577956795B795F7959E3F08F0B3CF6D
:101030009395880F08F09927EE0F97958795089557
:10104000A8D008F481E008950CD0DEC0D6D040F0DE
:10105000CDD030F021F45F3F19F0BFC0511108C16D
:10106000C2C0E3D098F39923C9F35523B1F3951B7C
:10107000550BBB27AA2762177307840738F09F5FB9
:101080005F4F220F331F441FAA1FA9F333D00E2E28
:101090003AF0E0E830D091505040E695001CCAF795
:1010A00029D0FE2F27D0660F771F881FBB1F26175A
:1010B00037074807AB07B0E809F0BB0B802DBF012D
:1010C000FF2793585F4F2AF09E3F510568F085C077
:1010D000CFC05F3FECF3983EDCF38695779567953C
:1010E000B795F7959F5FC9F7880F911D96958795DE
:1010F00097F90895E1E0660F771F881FBB1F6217FD
:1011000073078407BA0720F0621B730B840BBA0BBA
:10111000EE1F88F7E0950895E89409C097FB3EF428
:1011200090958095709561957F4F8F4F9F4F992334
:10113000A9F0F92F96E9BB279395F69587957795B2
:101140006795B795F111F8CFFAF4BB0F11F460FF72
:101150001BC06F5F7F4F8F4F9F4F16C0882311F0CA
:1011600096E911C0772321F09EE8872F762F05C0DE
:10117000662371F096E8862F70E060E02AF09A9579
:10118000660F771F881FDAF7880F9695879597F96E
:101190000895990F0008550FAA0BE0E8FEEF161608
:1011A0001706E807F907C0F012161306E407F5075B
:1011B00098F0621B730B840B950B39F40A2661F0CF
:1011C000232B242B252B21F408950A2609F4A14072
:1011D000A6958FEF811D811D089597F99F6780E87F
:1011E00070E060E008959FEF80EC089500240A9479
:1011F0001616170618060906089500240A941216F2
:101200001306140605060895092E0394000C11F424
:10121000882352F0BB0F40F4BF2B11F460FF04C0D1
:101220006F5F7F4F8F4F9F4F089557FD9058440F2A
:10123000551F59F05F3F71F04795880F97FB991F35
:1012400061F09F3F79F087950895121613061406F2
:10125000551FF2CF4695F1DF08C01616170618067F
:10126000991FF1CF86957105610508940895E8945A
:10127000BB2766277727CB0197F908958ADF08F403
:101280008FEF08950BD0C0CFB1DF28F0B6DF18F094
:10129000952309F0A2CFA7CF1124EACFC6DFA0F390
:1012A000959FD1F3950F50E0551F629FF001729FFB
:1012B000BB27F00DB11D639FAA27F00DB11DAA1F1A
:1012C000649F6627B00DA11D661F829F2227B00D67
:1012D000A11D621F739FB00DA11D621F839FA00DF2
:1012E000611D221F749F3327A00D611D231F849F42
:1012F000600D211D822F762F6A2F11249F57504099
:101300008AF0E1F088234AF0EE0FFF1FBB1F661F33
:10131000771F881F91505040A9F79E3F510570F0EC
:101320005CCFA6CF5F3FECF3983EDCF386957795D4
:101330006795B795F795E7959F5FC1F7FE2B880FE7
:10134000911D9695879597F90895A1E0B0E0EBEA95
:10135000F9E00C94A80C7A01102F322F283008F0F5
:1013600037E000E0232FA70139830E94420AD7010A
:101370009C913981F70190FF04C093FD02C02DE2DA
:1013800007C011FF02C02BE203C010FF02C020E221
:10139000219393FD05C092FF0DC06CE570E002C083
:1013A00064E570E012FF02C06C5F7F4FCF010E94C6
:1013B0001A0B42C0D70111962C912193213309F0C9
:1013C0009F7E3323C9F06701B2E0CB0ED11CAF0181
:1013D0006EE2232F2C0DD6017D916D01DA016D9304
:1013E000AD01672F2C11F7CF3150232F30E02F5F45
:1013F0003F4FE20FF31F719312FF02C025E401C0BB
:1014000025E6208387FF05C09DE291833296819572
:1014100009C0811104C094FF02C09DE201C09BE29B
:101420009183329690E302C09F5F8A508A30E4F73E
:101430009083805D81831282C7012196E8E00C943D
:10144000C40CEF920F931F93CF93C02F47FF02C09E
:1014500034E101C034E0E42FFF27E7FDF095F7FF0A
:1014600003C0F195E195F109E32E022F2E2F4C2FA9
:10147000512F0E94210B8C2F912FCF911F910F91F3
:10148000EF900895283008F027E03327DA01990F0C
:10149000311D87FD916000966105710539F4326058
:1014A0002E5F3D9330E32A95E1F708959F3F30F09A
:1014B00080387105610509F03C5F3C5F3D939130D8
:1014C00008F08068911DDF93CF931F930F93FF92D5
:1014D000EF92192F987F9695E92F96959695E90F9B
:1014E000FF27E254FF4F99273327EE24FF24A7015B
:1014F000E70105900894079428F4360FE71EF81EBC
:10150000491F511D660F771F881F991F0694A1F769
:101510000590079428F4E70EF81E491F561FC11DB9
:10152000770F881F991F661F0694A1F705900794EF
:1015300028F4F80E491F561FC71FD11D880F991F89
:10154000661F771F0694A1F70590079420F4490FB2
:10155000561FC71FD81F990F661F771F881F069435
:10156000A9F784911095177041F0D695C7955795B6
:101570004795F794E7941A95C1F7E4E6F0E068948C
:101580001590159135916591959105907FE2739530
:10159000E118F10A430B560BC90BD009C0F7E10C57
:1015A000F11E431F561FC91FD01D7EF4703311F466
:1015B0008A95E6CFE894015030F0080F0AF400272E
:1015C000021708F4202F2395022F7A3328F079E3AD
:1015D0007D932A95E9F710C07D932A9589F60694A4
:1015E00097956795379517951794E118F10A430B6E
:1015F000560BC90BD00998F023957E9173957A33D9
:1016000008F070E37C932013B8F77E9170617D93AE
:1016100030F0839571E37D9370E32A95E1F711240F
:10162000EF90FF900F911F91CF91DF91992787FD48
:1016300090950895FB01DC0105900D920020E1F7E3
:1016400008956F927F929F92AF92BF92CF92DF9256
:10165000EF92FF920F931F93CF93DF93CDB7DEB737
:1016600029970FB6F894DEBF0FBECDBF6A01B22E28
:10167000102F0C3318F4F02EF39402C05CE3F52E17
:101680000F2D27E0AE014F5F5F4F0E94420A798124
:10169000272F2970213031F0E1FC06C0E0FE06C0A2
:1016A00060E205C06DE203C06BE201C060E073FF61
:1016B0003DC0662311F084E001C083E08B1510F477
:1016C000B81A01C0B12CE4FC0BC08B2DF60190E2DE
:1016D00002C0919381508111FCCFCB0CD11CB12C55
:1016E000662319F0D6016D936D01E2FE0AC08EE407
:1016F000F601808391E491838283F3E0CF0ED11CC5
:101700000CC08EE6D6018C9391E611969C931197AE
:1017100012968C93B3E0CB0ED11C8B2DF60190E288
:1017200002C0919381508111FCCF40C072FF45C02F
:10173000662311F084E001C083E08B1510F4B81A21
:1017400001C0B12CE4FC0BC08B2DF60190E202C06D
:10175000919381508111FCCFCB0CD11CB12C66230D
:1017600019F0F60161936F01E2FE0EC089E4D60123
:101770008C938EE411968C93119786E412968C9339
:10178000B3E0CB0ED11C0AC089E6F60180838EE659
:10179000818386E68283F3E0CF0ED11C8B2DF60188
:1017A00090E202C0919381508111FCCFF601EB0DC4
:1017B000F11D10822EEF3FEFACC0A1E0611101C01E
:1017C000A0E04A2F50E01816190624F49C012F5F60
:1017D0003F4F02C021E030E0240F351F112329F0D4
:1017E000412F50E04F5F5F4F02C040E050E0420F9A
:1017F000531F2B2D30E04217530714F4B41A01C0C5
:10180000B12C3E2D3071E4FC0DC0E3FC0BC02B2D40
:10181000F60140E202C0419321502111FCCFCB0CD4
:10182000D11CB12CAA2319F0D6016D936D01311191
:101830000BC02B2DF60130E302C031932150211152
:10184000FCCFCB0CD11CB12CF80E0A8140E1A42EA8
:10185000A72274FF03C0013309F4FA941F142CF477
:101860002F2D293018F028E001C021E0AC0197FFAE
:1018700002C040E050E060E070E03EE2932EFC01E8
:10188000E21BF1099F01DC01A41BB50BFE0131969F
:10189000EA0FFB1FA12FB0E0662477246A1A7B0AA7
:1018A0004F3F1FEF510719F4D6019D926D01841728
:1018B000950754F0241735073CF47F01E60EF71E18
:1018C000D70111961C9101C010E3415051096F5F7F
:1018D0007F4F4615570524F0D6011D936D01E0CFCB
:1018E0004817590739F4063320F4053319F4A110C9
:1018F00001C011E3F60111938B2DDF0190E202C0CC
:101900009D9381508111FCCFEB0DF11D108220E0E1
:1019100030E0C90129960FB6F894DEBF0FBECDBFE7
:10192000DF91CF911F910F91FF90EF90DF90CF90BB
:10193000BF90AF909F907F906F9008952F923F92AD
:101940004F925F926F927F928F929F92AF92BF92CF
:10195000CF92DF92EF92FF920F931F93CF93DF937B
:10196000CDB7DEB7CA1BDB0B0FB6F894DEBF0FBED8
:10197000CDBF09942A88398848885F846E847D8425
:101980008C849B84AA84B984C884DF80EE80FD8027
:101990000C811B81AA81B981CE0FD11D0FB6F8949D
:0E19A000DEBF0FBECDBFED010895F894FFCF5E
:1019AE00FF0000000000000000000000000000002A
:1019BE000000000000000000000000000000000019
:1019CE000000000000000000000000000000000009
:1019DE0000000000000000000000000000000000F9
:1019EE00000000000000FF000000000000000000EA
:1019FE0000000000000000000000000000000000D9
:101A0E0000000000000000000000000000000000C8
:101A1E0000000000000000000000000000000000B8
:101A2E000000000000000000000000003738392FD1
:101A3E003435362A3132332D43303D2B4E4F20452F
:101A4E0052524F5200000000000000004D41544819
:101A5E00204552524F520000000000004620464FD3
:101A6E00524D4154204552524F5200004E4F204F7E
:0C1A7E005045524154494F4E00000000FA
:00000001FF
