S012000063616C63756C61746F722E73726563E8
S11300000C94AF000C94CC000C94CC000C94CC0059
S11300100C94CC000C94CC000C94CC000C94CC002C
S11300200C94CC000C94CC000C94CC000C94CC001C
S11300300C94CC000C94CC000C94CC000C94CC000C
S11300400C94CC000C94CC000C94CC000C94CC00FC
S11300500C94CC006E616E004E414E00696E6600D9
S1130060494E460000407A10F35A00A0724E180917
S11300700010A5D4E80000E87648170000E40B540B
S1130080020000CA9A3B000000E1F50500008096DA
S11300909800000040420F000000A086010000000C
S11300A0102700000000E8030000000064000000C6
S11300B000000A00000000000100000000002C768F
S11300C0D888DC674F0823DFC1DFAE59E1B1B796AA
S11300D0E5E3E453C63AE651997696E8E6C2842607
S11300E0EB898C9B62ED407C6FFCEFBC9C9F40F2E3
S11300F0BAA56FA5F490055A2AF75C936B6CF9675F
S11301006DC11BFCE0E40D47FEF520E6B500D0ED23
S1130110902E0300943577050080841E080000208B
S11301204E0A000000C80C333333330F986E128329
S11301301141EF8D2114893BE65516CFFEE6DB18FD
S1130140D1844B381BF77C1D901DA4BBE4242032C2
S113015084725E228100C9F124ECA1E53D271124BB
S11301601FBECFE5D8E0DEBFCDBF11E0A0E6B0E012
S1130170EEE4FAE102C005900D92AC33B107D9F771
S113018021E0ACE3B1E001C01D92A13AB207E1F76E
S11301900E9460010C94250D0C940000A09AA19A71
S11301A0A29AA39AA498A598A698A798A89AA99A57
S11301B0AA9AAB9AAC9AAD9AAE9AAF9A089580E097
S11301C0A89AA99AAA9AAB9A813041F028F0823071
S11301D039F0833041F406C0A89805C0A99803C03B
S11301E0AA9801C0AB989C9B0BC09D9B0BC09E9B87
S11301F00BC09F9B0BC08F5F843011F78FEF089566
S1130200E0E005C0E1E003C0E2E001C0E3E0F0E0CB
S113021094E0899FE00DF11D1124E451FF4F80818A
S113022008950E94DF00E82F80913C01E81343C049
S113023020913D0130913E0140913F015091400198
S11302406091410170914201809143019091440178
S1130250A1E00E94E90920933D0130933E014093BF
S11302603F01509340016093410170934201809398
S11302704301909344012031374241055105610502
S113028071058105910599F410923D0110923E018A
S113029010923F01109240011092410110924201CC
S11302A01092430110924401E0933C0107C0E09393
S11302B03C01EFEF03C0E0933C01EFEF8E2F089574
S11302C0CF93DF93CDB7DEB761970FB6F894DEBF57
S11302D00FBECDBF0F2EF1E1BF2EF02DEE24E3941F
S11302E0F12CEC0EFD1EDD24D39408E511E00F2E55
S11302F0FDE39F2EF02D6894AA24A2F86894882424
S113030081F80F2EF3E0CF2EF02D8091450182303D
S113031009F481C028F4882349F08130B1F70DC075
S1130320833009F48BC0843081F7BDC00E94B202CF
S11303300E94CE00D0924501E8CF10924601E7E436
S1130340F1E01192E017F107E1F7612C712C0E94A2
S113035011018F3FE1F3833479F40E94D50280E0E8
S1130360E82FF0E0E95BFE4F10828F5F7816C0F74C
S113037010924601712CEBCF8D3319F5611005C035
S1130380C0924601C0924501C0CFE72DF0E0E95B81
S1130390FE4F9082319780818B3231F08D3221F083
S11303A08A3211F08F3219F4D092460107C080913D
S11303B04601811103C080924501A7CFA092450157
S11303C0A4CF9FE0971518F28B3251F08D3241F093
S11303D08A3209F479C08F3299F47AC0D0924601F6
S11303E0E72DF0E0EA5BFE4F90819B3231F09D32C5
S11303F021F09A3211F09F3211F4D09246016394A5
S1130400E72DF0E0E95BFE4F8083472D60E00E941A
S1130410160373949CCF80914601833019F4C092E3
S1130420450173CF87E491E00E943003811103C03A
S1130430C09245016ACFA092450167CFF7018B2D89
S113044011928A95E9F780914601833059F460E06E
S11304508D2D0E94E30287E491E00E94FE02109237
S113046046011AC060E0C7010E942407811108C038
S113047060E08D2D0E94E302C7010E94FE020CC0C1
S1130480823051F460E08D2D0E94E3028CE191E012
S11304900E94FE02109246010E9411018334E1F78A
S11304A0D092450132CF60E08D2D0E94E3028CE0B2
S11304B091E00E94FE020E9411018334E1F7D09280
S11304C045011092460121CF772009F487CF88CFC8
S11304D0772009F483CF84CFD89A85E38A95F1F7FE
S11304E00000D89885E38A95F1F700000895CF932A
S11304F0C62F811102C0D99801C0D99AC4FF02C085
S1130500DC9A01C0DC98C5FF02C0DD9A01C0DD9809
S1130510C6FF02C0DE9A01C0DE98CC2314F4DF9A31
S113052001C0DF980E946C028FE99FE00197F1F708
S113053000C00000C0FF02C0DC9A01C0DC98C1FF0B
S113054002C0DD9A01C0DD98C2FF02C0DE9A01C07C
S1130550DE98C3FF02C0DF9A01C0DF980E946C02DC
S1130560CF910895D09AD19AD49AD59AD69AD79AF7
S1130570D898D998DC98DD98DE98DF988FE39CE9C9
S11305800197F1F700C0000063E380E00E94770266
S113059062E380E00E94770268E280E00E947702D2
S11305A06CE080E00E947702089561E080E00E94A0
S11305B077022FEF80E792E0215080409040E1F7EE
S11305C000C000000895882319F0813089F408C020
S11305D0603180F4605880E00E94770280E00895E2
S11305E0603150F4605480E00E94770280E0089506
S11305F082E0089583E0089583E00895CF93DF9324
S1130600009771F0FC016081662361F0EC01219692
S113061081E00E94770269916111FACF80E003C002
S113062081E001C080E0DF91CF910895CF93C82F7E
S1130630623098F4403108F04F70611103C0642FA8
S1130640605802C0642F605480E00E9477026C2FCF
S113065081E00E94770280E001C082E0CF9108959A
S11306602F924F925F926F927F928F929F92AF924E
S1130670BF92CF92DF92EF92FF920F931F93CF938B
S1130680DF93CDB7DEB7C855D1090FB6F894DEBFF6
S11306900FBECDBF40E050E060E87FE367964CAF0B
S11306A05DAF6EAF7FAF679763961CAE1DAE1EAE97
S11306B01FAE6397DC011C91112309F411C11D3392
S11306C009F072C04EC06996EEADFFAD6997119105
S11306D06996FFAFEEAF6997112309F401C11D3389
S11306E009F075C03EC086EA90E00E94C007679694
S11306F08CAC9DACAEACBFAC67976396CCACDDACB8
S1130700EEACFFAC639720E030E040E452E40E949A
S1130710FF07A50194010E948609A70196010E9482
S11307200008462F572F682F792F63964CAF5DAF83
S11307306EAF7FAF639767966CAD7DAD8EAD9FADA9
S1130740679720E030E040E251E40E948609462F9A
S1130750572F682F792F67964CAF5DAF6EAF7FAF81
S1130760679786EA90E00E94A007882309F4BBCF2C
S113077063964CAD5DAD6EAD7FAD639780E690E062
S11307800E94A707612F70E0719561957109882710
S113079077FD8095982F0E94D208AB01BC0180E6BA
S11307A090E00E94A7079CC09C012F5F3F4F699671
S11307B03FAF2EAF69970F2EF1E12F2EF02D0F2EA4
S11307C0412C512CF0E86F2EFFE37F2EF02D1B32CD
S11307D009F448C01D3209F445C01A3209F442C074
S11307E01F3209F06EC03EC086EA90E00E94C00746
S11307F067968CAC9DACAEACBFAC67976396CCAC43
S1130800DDACEEACFFAC639720E030E040E452E4B2
S11308100E94FF07A50194010E948609A701960181
S11308200E940008462F572F682F792F63964CAFEC
S11308305DAF6EAF7FAF639767966CAD7DAD8EADE8
S11308409FAD679720E030E040E251E40E948609C2
S1130850462F572F682F792F67964CAF5DAF6EAF39
S11308607FAF679786EA90E00E94A007882309F487
S1130870BBCF63964CAD5DAD6EAD7FAD639780E647
S113088090E00E94A707612F70E07195619571094E
S1130890882777FD8095982F0E94D208AB01BC0170
S11308A080E690E00E94A70763961CAE1DAE1EAEC4
S11308B01FAE639767964CAE5DAE6EAE7FAE679724
S11308C00CC0612F70E080E090E00E94D008AB0182
S11308D0BC0186EA90E00E94A7072A9409F0F3CEAF
S11308E02B961CAE1DAE1EAE1FAE2B97FE0131968D
S11308F086E4DF011D928A95E9F78FEF8983809161
S1130900620090916300A0916400B09165002F96FD
S11309108CAF9DAFAEAFBFAF2F972F966CAD7DADB3
S11309208EAD9FAD2F9720E030E044E752EC0E945B
S1130930640881114FC032C0F70181919191A19156
S1130940B1917F012F968CAF9DAFAEAFBFAF2F9704
S11309502F966CAD7DAD8EAD9FAD2F9720E030E02E
S113096044E752EC0E946408811140C017C0009112
S1130970A00110E0CE0101960E94C007F801EE0F1D
S1130980FF1FEE0FFF1FE45AFE4F608371838283C3
S113099093838091A0018F5F8093A001CE01019683
S11309A00E94A007882319F32F968CAD9DADAEADA0
S11309B0BFAD2F97E091A001F0E0EE0FFF1FEE0F07
S11309C0FF1FE45AFE4F80839183A283B383109266
S11309D0A00160C10F2EF6E6EF2EF0E0FF2EF02D01
S11309E00F2EF6EACF2EF0E0DF2EF02D2F966CAD11
S11309F07DAD8EAD9FAD2F9720E030E04CE252EC00
S1130A000E946408882371F02F966CAD7DAD8EAD85
S1130A109FAD2F9720E030E044E352EC0E9464083D
S1130A20811188C0CE0101960E94A007811177C070
S1130A30CE0101960E94EB072B966CAF7DAF8EAF73
S1130A409FAF2B972B966CAD7DAD8EAD9FAD2B9745
S1130A5020E030E048E252EC0E946408882331F13F
S1130A602B966CAD7DAD8EAD9FAD2B9720E030E025
S1130A704CE352EC0E9464088823C1F03FC000910B
S1130A80A00110E0CE0101960E94C007F801EE0F0C
S1130A90FF1FEE0FFF1FE45AFE4F608371838283B2
S1130AA093838091A0018F5F8093A001CE01019672
S1130AB00E94A007882319F32F964CAD5DAD6EAD4F
S1130AC07FAD2F97CE0101960E94A707DFC000914A
S1130AD0A00110E0CE0101960E94C007F801EE0FBC
S1130AE0FF1FEE0FFF1FE45AFE4F60837183828362
S1130AF093838091A0018F5F8093A001CE01019622
S1130B000E94A007882319F32F964CAD5DAD6EADFE
S1130B107FAD2F97CE0101960E94A707B7C02F96ED
S1130B204CAD5DAD6EAD7FAD2F97CE0101960E94A9
S1130B30A707ACC02F966CAD7DAD8EAD9FAD2F9742
S1130B4020E030E048E252EC0E946408882371F00F
S1130B502F966CAD7DAD8EAD9FAD2F9720E030E02C
S1130B604CE352EC0E946408811179C0CE010196D5
S1130B700E94A007811168C02B966CAD7DAD8EAD2F
S1130B809FAD2B9720E030E048E252EC0E946408CD
S1130B90882331F12B966CAD7DAD8EAD9FAD2B9737
S1130BA020E030E04CE352EC0E9464088823C1F05A
S1130BB040C00091A00110E0CE0101960E94C00740
S1130BC0F801EE0FFF1FEE0FFF1FE45AFE4F608384
S1130BD07183828393838091A0018F5F8093A001AE
S1130BE0CE0101960E94A007811118C0CE01019682
S1130BF00E94EB0720E030E048E252EC0E946408D7
S1130C008823B9F2CE0101960E94EB0720E030E080
S1130C104CE352EC0E946408882359F22F964CADA1
S1130C205DAD6EAD7FAD2F97CE0101960E94A707F3
S1130C302DC02F964CAD5DAD6EAD7FAD2F97CE011F
S1130C4001960E94A70722C02F964CAD5DAD6EADF4
S1130C507FAD2F97CE0101960E94A70717C0209160
S1130C60A0012F968CAD9DADAEADBFAD2F97E22FF9
S1130C70F0E0EE0FFF1FEE0FFF1FE45AFE4F8083DC
S1130C809183A283B3832F5F2093A001EC14FD040E
S1130C9009F052CEFE01319686E4DF011D928A9559
S1130CA0E9F78FEF898380905C0190905D01A090BB
S1130CB05E01B0905F0120E030E044E752ECC501F2
S1130CC0B4010E946408882309F498C000E611E086
S1130CD00F2EF0EAEF2EF1E0FF2EF02D11C0F801F7
S1130CE081909190A190B1908F0120E030E044E791
S1130CF052ECC501B4010E946408882309F47EC043
S1130D0020E030E04CE252ECC501B4010E946408DA
S1130D10882309F462C020E030E044E352ECC501CA
S1130D20B4010E946408882349F120E030E048E2DD
S1130D3052ECC501B4010E946408882371F120E0DB
S1130D4030E04CE352ECC501B4010E9464088823EE
S1130D50A9F109C0462F572F682F792FCE0101968C
S1130D600E94A70706C0B501A401CE0101960E9406
S1130D70A7070E151F0509F0B2CF40C0CE0101969A
S1130D800E94C0074B015C01CE0101960E94C0077E
S1130D90A50194010E94FF07DDCFCE0101960E94B8
S1130DA0C0074B015C01CE0101960E94C0079B0164
S1130DB0AC01C501B4010E948609CCCFCE010196D5
S1130DC00E94C0074B015C01CE0101960E94C0073E
S1130DD0A50194010E946808BDCFCE0101960E942E
S1130DE0C0074B015C01CE0101960E94C0079B0124
S1130DF0AC01C501B4010E940008ACCFCE0101963C
S1130E000E94EB07609358017093590180935A0133
S1130E1090935B0180E0C85ADF4F0FB6F894DEBFB1
S1130E200FBECDBFDF91CF911F910F91FF90EF9037
S1130E30DF90CF90BF90AF909F908F907F906F90F6
S1130E405F904F902F900895CF92DF92EF92FF9290
S1130E500F931F93CF93DF93EC0161112CC0C090CB
S1130E605801D0905901E0905A01F0905B0120E8BC
S1130E7036E948E15BE4C701B6010E94820918160D
S1130E8054F020E836E948E15BECC701B6010E9462
S1130E906408882344F405E025E0AE01C701B601E7
S1130EA00E94F50928C08E0123E041E0C701B60184
S1130EB00E94710A20C06130F1F460915801709170
S1130EC0590180915A0190915B0105E025E0AE0142
S1130ED00E94F50910C01192119211921192199267
S1130EE01992199219921D921D921D921D92E81742
S1130EF0F90789F709C0E8EAF0E0C2E6D0E0ACE51A
S1130F00B1E08CEE90E0E7CF1092A7001092610060
S1130F101092A600109260001092A0011092580145
S1130F201092590110925A0110925B0180E0DF91F6
S1130F30CF911F910F91FF90EF90DF90CF90089584
S1130F4021E0FC018181811120E0822F0895FC01C0
S1130F509081892F8F5F8083813111F4908308956C
S1130F60DF0194E0899FA00DB11D112412964D93C9
S1130F705D936D937C93159781818F5F8183089531
S1130F80CF93DF93FC0181818823D9F02081EF0185
S1130F9094E0299FC00DD11D1124DE011296CA814F
S1130FA011967C91119712966C91129713969C91BD
S1130FB0215020832F3F19F08150818306C0118274
S1130FC004C0C0E070E060E090E0362F6C2F832F07
S1130FD0DF91CF910895FC012081DC01F4E02F9F83
S1130FE0A00DB11D1124FD01329612965C91418130
S1130FF032812381652F742F832F922F08955058A7
S1131000BB27AA270ED044C135D130F03AD120F005
S113101031F49F3F11F41EF42AC10EF4E095E7FB6E
S113102020C1E92F46D180F3BA17620773078407FA
S1131030950718F071F49EF55EC10EF4E0950B2E41
S1131040BA2FA02D0B01B90190010C01CA01A00116
S11310501124FF27591B99F0593F50F4503E68F171
S11310601A16F040A22F232F342F4427585FF3CFB2
S1131070469537952795A795F0405395C9F77EF483
S11310801F16BA0B620B730B840BBAF09150A1F0CC
S1131090FF0FBB1F661F771F881FC2F70EC0BA0F52
S11310A0621F731F841F48F4879577956795B795DA
S11310B0F7959E3F08F0B3CF9395880F08F09927D2
S11310C0EE0F979587950895A8D008F481E00895C8
S11310D00CD0DEC0D6D040F0CDD030F021F45F3F4C
S11310E019F0BFC0511108C1C2C0E3D098F39923CD
S11310F0C9F35523B1F3951B550BBB27AA276217D8
S11311007307840738F09F5F5F4F220F331F441F1C
S1131110AA1FA9F333D00E2E3AF0E0E830D0915054
S11311205040E695001CCAF729D0FE2F27D0660F41
S1131130771F881FBB1F261737074807AB07B0E880
S113114009F0BB0B802DBF01FF2793585F4F2AF096
S11311509E3F510568F085C0CFC05F3FECF3983ED9
S1131160DCF3869577956795B795F7959F5FC9F7F3
S1131170880F911D9695879597F90895E1E0660F7C
S1131180771F881FBB1F621773078407BA0720F0F5
S1131190621B730B840BBA0BEE1F88F7E09508955E
S11311A0E89409C097FB3EF49095809570956195FD
S11311B07F4F8F4F9F4F9923A9F0F92F96E9BB27B3
S11311C09395F695879577956795B795F111F8CF2F
S11311D0FAF4BB0F11F460FF1BC06F5F7F4F8F4F9A
S11311E09F4F16C0882311F096E911C0772321F090
S11311F09EE8872F762F05C0662371F096E8862F28
S113120070E060E02AF09A95660F771F881FDAF77E
S1131210880F9695879597F90895990F0008550FAB
S1131220AA0BE0E8FEEF16161706E807F907C0F068
S113123012161306E407F50798F0621B730B840B70
S1131240950B39F40A2661F0232B242B252B21F44A
S113125008950A2609F4A140A6958FEF811D811DEA
S1131260089597F99F6780E870E060E008959FEF24
S113127080EC089500240A94161617061806090629
S1131280089500240A9412161306140605060895F8
S1131290092E0394000C11F4882352F0BB0F40F480
S11312A0BF2B11F460FF04C06F5F7F4F8F4F9F4FC0
S11312B0089557FD9058440F551F59F05F3F71F042
S11312C04795880F97FB991F61F09F3F79F08795A9
S11312D00895121613061406551FF2CF4695F1DF32
S11312E008C0161617061806991FF1CF86957105C2
S11312F0610508940895E894BB2766277727CB01F6
S113130097F908958ADF08F48FEF08950BD0C0CFC2
S1131310B1DF28F0B6DF18F0952309F0A2CFA7CFEC
S11313201124EACFC6DFA0F3959FD1F3950F50E0C7
S1131330551F629FF001729FBB27F00DB11D639F83
S1131340AA27F00DB11DAA1F649F6627B00DA11D29
S1131350661F829F2227B00DA11D621F739FB00DCF
S1131360A11D621F839FA00D611D221F749F33273F
S1131370A00D611D231F849F600D211D822F762FD8
S11313806A2F11249F5750408AF0E1F088234AF0D5
S1131390EE0FFF1FBB1F661F771F881F9150504021
S11313A0A9F79E3F510570F05CCFA6CF5F3FECF3E9
S11313B0983EDCF3869577956795B795F795E7950D
S11313C09F5FC1F7FE2B880F911D9695879597F91E
S11313D008950024A7FD00942A0F301D401D501DC0
S11313E0601D701D801D901D0895A1E0B0E0EBEF1D
S11313F0F9E00C94F80C7A01102F322F283008F001
S113140037E000E0232FA70139830E94920AD70115
S11314109C913981F70190FF04C093FD02C02DE235
S113142007C011FF02C02BE203C010FF02C020E27C
S1131430219393FD05C092FF0DC06CE570E002C0DE
S113144064E570E012FF02C06C5F7F4FCF010E9421
S11314506A0B42C0D70111962C912193213309F0D4
S11314609F7E3323C9F06701B2E0CB0ED11CAF01DC
S11314706EE2232F2C0DD6017D916D01DA016D935F
S1131480AD01672F2C11F7CF3150232F30E02F5FA0
S11314903F4FE20FF31F719312FF02C025E401C016
S11314A025E6208387FF05C09DE2918332968195CE
S11314B009C0811104C094FF02C09DE201C09BE2F7
S11314C09183329690E302C09F5F8A508A30E4F79A
S11314D09083805D81831282C7012196E8E00C9499
S11314E0140DEF920F931F93CF93C02F47FF02C0A9
S11314F034E101C034E0E42FFF27E7FDF095F7FF66
S113150003C0F195E195F109E32E022F2E2F4C2F04
S1131510512F0E94710B8C2F912FCF911F910F91FE
S1131520EF900895283008F027E03327DA01990F67
S1131530311D87FD916000966105710539F43260B3
S11315402E5F3D9330E32A95E1F708959F3F30F0F5
S113155080387105610509F03C5F3C5F3D93913033
S113156008F08068911DDF93CF931F930F93FF9230
S1131570EF92192F987F9695E92F96959695E90FF6
S1131580FF27E254FF4F99273327EE24FF24A701B6
S1131590E70105900894079428F4360FE71EF81E17
S11315A0491F511D660F771F881F991F0694A1F7C5
S11315B00590079428F4E70EF81E491F561FC11D15
S11315C0770F881F991F661F0694A1F7059007944B
S11315D028F4F80E491F561FC71FD11D880F991FE5
S11315E0661F771F0694A1F70590079420F4490F0E
S11315F0561FC71FD81F990F661F771F881F069491
S1131600A9F784911095177041F0D695C795579511
S11316104795F794E7941A95C1F7E4E6F0E06894E7
S11316201590159135916591959105907FE273958B
S1131630E118F10A430B560BC90BD009C0F7E10CB2
S1131640F11E431F561FC91FD01D7EF4703311F4C1
S11316508A95E6CFE894015030F0080F0AF4002789
S1131660021708F4202F2395022F7A3328F079E308
S11316707D932A95E9F710C07D932A9589F60694FF
S113168097956795379517951794E118F10A430BC9
S1131690560BC90BD00998F023957E9173957A3334
S11316A008F070E37C932013B8F77E9170617D930A
S11316B030F0839571E37D9370E32A95E1F711246B
S11316C0EF90FF900F911F91CF91DF91992787FDA4
S11316D090950895FB01DC0105900D920020E1F73F
S11316E008956F927F929F92AF92BF92CF92DF92B2
S11316F0EF92FF920F931F93CF93DF93CDB7DEB793
S113170029970FB6F894DEBF0FBECDBF6A01B22E83
S1131710102F0C3318F4F02EF39402C05CE3F52E72
S11317200F2D27E0AE014F5F5F4F0E94920A79812F
S1131730272F2970213031F0E1FC06C0E0FE06C0FD
S113174060E205C06DE203C06BE201C060E073FFBC
S11317503DC0662311F084E001C083E08B1510F4D2
S1131760B81A01C0B12CE4FC0BC08B2DF60190E239
S113177002C0919381508111FCCFCB0CD11CB12CB0
S1131780662319F0D6016D936D01E2FE0AC08EE462
S1131790F601808391E491838283F3E0CF0ED11C20
S11317A00CC08EE6D6018C9391E611969C9311970A
S11317B012968C93B3E0CB0ED11C8B2DF60190E2E4
S11317C002C0919381508111FCCF40C072FF45C08B
S11317D0662311F084E001C083E08B1510F4B81A7D
S11317E001C0B12CE4FC0BC08B2DF60190E202C0C9
S11317F0919381508111FCCFCB0CD11CB12C662369
S113180019F0F60161936F01E2FE0EC089E4D6017E
S11318108C938EE411968C93119786E412968C9394
S1131820B3E0CB0ED11C0AC089E6F60180838EE6B4
S1131830818386E68283F3E0CF0ED11C8B2DF601E3
S113184090E202C0919381508111FCCFF601EB0D1F
S1131850F11D10822EEF3FEFACC0A1E0611101C079
S1131860A0E04A2F50E01816190624F49C012F5FBB
S11318703F4F02C021E030E0240F351F112329F02F
S1131880412F50E04F5F5F4F02C040E050E0420FF5
S1131890531F2B2D30E04217530714F4B41A01C020
S11318A0B12C3E2D3071E4FC0DC0E3FC0BC02B2D9C
S11318B0F60140E202C0419321502111FCCFCB0C30
S11318C0D11CB12CAA2319F0D6016D936D013111ED
S11318D00BC02B2DF60130E302C0319321502111AE
S11318E0FCCFCB0CD11CB12CF80E0A8140E1A42E04
S11318F0A72274FF03C0013309F4FA941F142CF4D3
S11319002F2D293018F028E001C021E0AC0197FF09
S113191002C040E050E060E070E03EE2932EFC0143
S1131920E21BF1099F01DC01A41BB50BFE013196FA
S1131930EA0FFB1FA12FB0E0662477246A1A7B0A02
S11319404F3F1FEF510719F4D6019D926D01841783
S1131950950754F0241735073CF47F01E60EF71E73
S1131960D70111961C9101C010E3415051096F5FDA
S11319707F4F4615570524F0D6011D936D01E0CF26
S11319804817590739F4063320F4053319F4A11024
S113199001C011E3F60111938B2DDF0190E202C027
S11319A09D9381508111FCCFEB0DF11D108220E03D
S11319B030E0C90129960FB6F894DEBF0FBECDBF43
S11319C0DF91CF911F910F91FF90EF90DF90CF9017
S11319D0BF90AF909F907F906F9008952F923F9209
S11319E04F925F926F927F928F929F92AF92BF922B
S11319F0CF92DF92EF92FF920F931F93CF93DF93D7
S1131A00CDB7DEB7CA1BDB0B0FB6F894DEBF0FBE33
S1131A10CDBF09942A88398848885F846E847D8480
S1131A208C849B84AA84B984C884DF80EE80FD8082
S1131A300C811B81AA81B981CE0FD11D0FB6F894F8
S1111A40DEBF0FBECDBFED010895F894FFCFB9
S1131A4EFF00000000000000000000000000000085
S1131A5E0000000000000000000000000000000074
S1131A6E0000000000000000000000000000000064
S1131A7E0000000000000000000000000000000054
S1131A8E000000000000FF00000000000000000045
S1131A9E0000000000000000000000000000000034
S1131AAE0000000000000000000000000000000024
S1131ABE0000000000000000000000000000000014
S1131ACE0000000000000000000000003738392F2D
S1131ADE3435362A3132332D43303D2B4E4F20458B
S1131AEE52524F5200000000000000004D41544875
S1131AFE204552524F520000000000004620464F2F
S1131B0E524D4154204552524F5200004E4F204FD9
S10F1B1E5045524154494F4E0000000055
S9030000FC
